121211111INFORMATION BUILDERS01234560111111
121212345CARRER TRAINING CTR 12345672222222
221022222HOMELITE TEXTRON CO 34545000000000
221434567NEAS MEMBER BENEFITS00111110000000
221455555PILOT LIFE INS. CO. 10000000100000
341000111DAUPHIN DEPOSIT BANK14099001993000
341054321AIRCRAFT OWNERS ASSC05426124042000
341733333NORFOLK CORP        06396350446288
471112121GENERAL SERVICES CO.11444001105956
471124680INFO MANAGEMENT CO. 17481451189247
472199999DOLLAR SAVINGS BANK 05059000462195
472176543NATL MUSIC CORP.    02383460443526